{
  "transactions": [
    {
      "hash": "0x0cf61e6c2deccfec2637372beeac1a2d5945094b140d69eb96d3a6d7c9e12bbd",
      "transactionType": "CALL",
      "contractName": null,
      "contractAddress": "0x2284b45e09865548e3c100bc698621d9b8b2a7ee",
      "function": "setCooldownPeriod(uint256)",
      "arguments": [
        "1209600"
      ],
      "transaction": {
        "from": "0x2b62456efa5cc0c09f0aa9a1ccecfcca2396a4e9",
        "to": "0x2284b45e09865548e3c100bc698621d9b8b2a7ee",
        "gas": "0x15b2b",
        "value": "0x0",
        "input": "0x80ea3de10000000000000000000000000000000000000000000000000000000000127500",
        "nonce": "0x5b",
        "chainId": "0xa4b1"
      },
      "additionalContracts": [],
      "isFixedGasLimit": false
    }
  ],
  "receipts": [
    {
      "status": "0x1",
      "cumulativeGasUsed": "0xe29a",
      "logs": [
        {
          "address": "0x2284b45e09865548e3c100bc698621d9b8b2a7ee",
          "topics": [
            "0x3b897fd6944545fcb6a5d5b058781d763169157f8559ca1a7f3276b981d09971"
          ],
          "data": "0x0000000000000000000000000000000000000000000000000000000000127500",
          "blockHash": "0xccb994226e7d46fde0b660f3ffc20f305531e8c4ad5aa5f7ab4bff2b5af43025",
          "blockNumber": "0xe70e543",
          "transactionHash": "0x0cf61e6c2deccfec2637372beeac1a2d5945094b140d69eb96d3a6d7c9e12bbd",
          "transactionIndex": "0x1",
          "logIndex": "0x0",
          "removed": false
        }
      ],
      "logsBloom": "0x00000000800000000000000000000000000000100000000000000000000000000000000000000000000000000000000400000000000000000080000000000000000000000400000000000000000000000000000000000000000000000000000000000000000000000000000000000000000000000000000000000000000000000000000000000000000000000000000000000000000000000000000000000000000000000000000000000000000000000000000000000000000000000000000000000000000000000200000000000000000000000000000000000000000000000000000000000000000000000000000000000000000000000000000000000000",
      "type": "0x2",
      "transactionHash": "0x0cf61e6c2deccfec2637372beeac1a2d5945094b140d69eb96d3a6d7c9e12bbd",
      "transactionIndex": "0x1",
      "blockHash": "0xccb994226e7d46fde0b660f3ffc20f305531e8c4ad5aa5f7ab4bff2b5af43025",
      "blockNumber": "0xe70e543",
      "gasUsed": "0xe29a",
      "effectiveGasPrice": "0x989680",
      "from": "0x2b62456efa5cc0c09f0aa9a1ccecfcca2396a4e9",
      "to": "0x2284b45e09865548e3c100bc698621d9b8b2a7ee",
      "contractAddress": null,
      "gasUsedForL1": "0x6e85",
      "l1BlockNumber": "0x1390e6e"
    }
  ],
  "libraries": [],
  "pending": [],
  "returns": {},
  "timestamp": 1723513033,
  "chain": 42161,
  "commit": "784de35"
}